{
  "contractName": "Todo",
  "abi": [
    {
      "inputs": [
        {
          "internalType": "string",
          "name": "todo",
          "type": "string"
        }
      ],
      "name": "addTodo",
      "outputs": [],
      "stateMutability": "nonpayable",
      "type": "function"
    },
    {
      "inputs": [],
      "name": "getTodos",
      "outputs": [
        {
          "components": [
            {
              "internalType": "uint256",
              "name": "id",
              "type": "uint256"
            },
            {
              "internalType": "string",
              "name": "todo",
              "type": "string"
            }
          ],
          "internalType": "struct Todo.todoItem[]",
          "name": "",
          "type": "tuple[]"
        }
      ],
      "stateMutability": "view",
      "type": "function",
      "constant": true
    }
  ],
  "bytecode": "0x608060405234801561001057600080fd5b50610710806100206000396000f3fe608060405234801561001057600080fd5b50600436106100365760003560e01c806395ffebf51461003b578063c33926cb14610057575b600080fd5b610055600480360381019061005091906103a0565b610075565b005b61005f61015e565b60405161006c91906104ef565b60405180910390f35b6000803373ffffffffffffffffffffffffffffffffffffffff1673ffffffffffffffffffffffffffffffffffffffff16815260200190815260200160002060405180604001604052806000803373ffffffffffffffffffffffffffffffffffffffff1673ffffffffffffffffffffffffffffffffffffffff168152602001908152602001600020805490508152602001838152509080600181540180825580915050600190039060005260206000209060020201600090919091909150600082015181600001556020820151816001019080519060200190610158929190610295565b50505050565b60606000803373ffffffffffffffffffffffffffffffffffffffff1673ffffffffffffffffffffffffffffffffffffffff168152602001908152602001600020805480602002602001604051908101604052809291908181526020016000905b8282101561028c5783829060005260206000209060020201604051806040016040529081600082015481526020016001820180546101fb90610608565b80601f016020809104026020016040519081016040528092919081815260200182805461022790610608565b80156102745780601f1061024957610100808354040283529160200191610274565b820191906000526020600020905b81548152906001019060200180831161025757829003601f168201915b505050505081525050815260200190600101906101be565b50505050905090565b8280546102a190610608565b90600052602060002090601f0160209004810192826102c3576000855561030a565b82601f106102dc57805160ff191683800117855561030a565b8280016001018555821561030a579182015b828111156103095782518255916020019190600101906102ee565b5b509050610317919061031b565b5090565b5b8082111561033457600081600090555060010161031c565b5090565b600061034b61034684610536565b610511565b90508281526020810184848401111561036357600080fd5b61036e8482856105c6565b509392505050565b600082601f83011261038757600080fd5b8135610397848260208601610338565b91505092915050565b6000602082840312156103b257600080fd5b600082013567ffffffffffffffff8111156103cc57600080fd5b6103d884828501610376565b91505092915050565b60006103ed83836104a3565b905092915050565b600061040082610577565b61040a818561059a565b93508360208202850161041c85610567565b8060005b85811015610458578484038952815161043985826103e1565b94506104448361058d565b925060208a01995050600181019050610420565b50829750879550505050505092915050565b600061047582610582565b61047f81856105ab565b935061048f8185602086016105d5565b610498816106c9565b840191505092915050565b60006040830160008301516104bb60008601826104e0565b50602083015184820360208601526104d3828261046a565b9150508091505092915050565b6104e9816105bc565b82525050565b6000602082019050818103600083015261050981846103f5565b905092915050565b600061051b61052c565b9050610527828261063a565b919050565b6000604051905090565b600067ffffffffffffffff8211156105515761055061069a565b5b61055a826106c9565b9050602081019050919050565b6000819050602082019050919050565b600081519050919050565b600081519050919050565b6000602082019050919050565b600082825260208201905092915050565b600082825260208201905092915050565b6000819050919050565b82818337600083830152505050565b60005b838110156105f35780820151818401526020810190506105d8565b83811115610602576000848401525b50505050565b6000600282049050600182168061062057607f821691505b602082108114156106345761063361066b565b5b50919050565b610643826106c9565b810181811067ffffffffffffffff821117156106625761066161069a565b5b80604052505050565b7f4e487b7100000000000000000000000000000000000000000000000000000000600052602260045260246000fd5b7f4e487b7100000000000000000000000000000000000000000000000000000000600052604160045260246000fd5b6000601f19601f830116905091905056fea2646970667358221220e23dbceabf4cd46edb4e72e1c6c809bfd6eab464defa3409e385872c8cdaacf064736f6c63430008010033",
  "immutableReferences": {},
  "source": "// SPDX-License-Identifier: UNLICENSE-2.0\r\n\r\npragma solidity >=0.4.22 <0.9.0;\r\n\r\ncontract Todo {\r\n    struct todoItem{\r\n        uint id;\r\n        string todo;\r\n    }\r\n    mapping(address=>todoItem[]) todos;\r\n\r\n    function addTodo(string memory todo) public  {\r\n        todos[msg.sender].push(todoItem({id: todos[msg.sender].length, todo: todo}));\r\n    }\r\n\r\n    function getTodos() public view returns(todoItem[] memory){\r\n        return todos[msg.sender];\r\n    }\r\n}",
  "sourcePath": "C:\\Users\\Abba Bawa\\Documents\\web3\\solidity-todo-app\\contracts\\Todo.sol",
  "compiler": {
    "name": "solc",
    "version": "0.8.1+commit.df193b15.Emscripten.clang"
  },
  "schemaVersion": "3.4.10",
  "updatedAt": "2022-10-24T13:37:38.548Z",
  "networkType": "ethereum",
  "devdoc": {
    "kind": "dev",
    "methods": {},
    "version": 1
  },
  "userdoc": {
    "kind": "user",
    "methods": {},
    "version": 1
  }
}