{
  "contractName": "Todo",
  "abi": [
    {
      "inputs": [
        {
          "internalType": "string",
          "name": "todo",
          "type": "string"
        }
      ],
      "name": "addTodo",
      "outputs": [],
      "stateMutability": "nonpayable",
      "type": "function"
    },
    {
      "inputs": [],
      "name": "getTodos",
      "outputs": [
        {
          "components": [
            {
              "internalType": "uint256",
              "name": "id",
              "type": "uint256"
            },
            {
              "internalType": "string",
              "name": "todo",
              "type": "string"
            },
            {
              "internalType": "bool",
              "name": "done",
              "type": "bool"
            }
          ],
          "internalType": "struct Todo.todoItem[]",
          "name": "",
          "type": "tuple[]"
        }
      ],
      "stateMutability": "view",
      "type": "function",
      "constant": true
    },
    {
      "inputs": [
        {
          "internalType": "uint256",
          "name": "id",
          "type": "uint256"
        },
        {
          "internalType": "string",
          "name": "todo",
          "type": "string"
        },
        {
          "internalType": "bool",
          "name": "done",
          "type": "bool"
        }
      ],
      "name": "updateTodos",
      "outputs": [],
      "stateMutability": "nonpayable",
      "type": "function"
    }
  ],
  "bytecode": "0x608060405234801561001057600080fd5b50610a3e806100206000396000f3fe608060405234801561001057600080fd5b50600436106100415760003560e01c806395ffebf514610046578063c33926cb14610062578063d6d3708b14610080575b600080fd5b610060600480360381019061005b919061058e565b61009c565b005b61006a6101b4565b6040516100779190610789565b60405180910390f35b61009a600480360381019061009591906105cf565b610306565b005b60008060003373ffffffffffffffffffffffffffffffffffffffff1673ffffffffffffffffffffffffffffffffffffffff1681526020019081526020016000208054905090506000803373ffffffffffffffffffffffffffffffffffffffff1673ffffffffffffffffffffffffffffffffffffffff168152602001908152602001600020604051806060016040528083815260200184815260200160001515815250908060018154018082558091505060019003906000526020600020906003020160009091909190915060008201518160000155602082015181600101908051906020019061018d929190610459565b5060408201518160020160006101000a81548160ff02191690831515021790555050505050565b60606000803373ffffffffffffffffffffffffffffffffffffffff1673ffffffffffffffffffffffffffffffffffffffff168152602001908152602001600020805480602002602001604051908101604052809291908181526020016000905b828210156102fd578382906000526020600020906003020160405180606001604052908160008201548152602001600182018054610251906108df565b80601f016020809104026020016040519081016040528092919081815260200182805461027d906108df565b80156102ca5780601f1061029f576101008083540402835291602001916102ca565b820191906000526020600020905b8154815290600101906020018083116102ad57829003601f168201915b505050505081526020016002820160009054906101000a900460ff16151515158152505081526020019060010190610214565b50505050905090565b6000803373ffffffffffffffffffffffffffffffffffffffff1673ffffffffffffffffffffffffffffffffffffffff1681526020019081526020016000208054905083108015610357575060008310155b610396576040517f08c379a000000000000000000000000000000000000000000000000000000000815260040161038d906107ab565b60405180910390fd5b60008060003373ffffffffffffffffffffffffffffffffffffffff1673ffffffffffffffffffffffffffffffffffffffff168152602001908152602001600020848154811061040e577f4e487b7100000000000000000000000000000000000000000000000000000000600052603260045260246000fd5b90600052602060002090600302019050818160020160006101000a81548160ff02191690831515021790555082816001019080519060200190610452929190610459565b5050505050565b828054610465906108df565b90600052602060002090601f01602090048101928261048757600085556104ce565b82601f106104a057805160ff19168380011785556104ce565b828001600101855582156104ce579182015b828111156104cd5782518255916020019190600101906104b2565b5b5090506104db91906104df565b5090565b5b808211156104f85760008160009055506001016104e0565b5090565b600061050f61050a846107f0565b6107cb565b90508281526020810184848401111561052757600080fd5b61053284828561089d565b509392505050565b600081359050610549816109da565b92915050565b600082601f83011261056057600080fd5b81356105708482602086016104fc565b91505092915050565b600081359050610588816109f1565b92915050565b6000602082840312156105a057600080fd5b600082013567ffffffffffffffff8111156105ba57600080fd5b6105c68482850161054f565b91505092915050565b6000806000606084860312156105e457600080fd5b60006105f286828701610579565b935050602084013567ffffffffffffffff81111561060f57600080fd5b61061b8682870161054f565b925050604061062c8682870161053a565b9150509250925092565b6000610642838361072a565b905092915050565b600061065582610831565b61065f8185610854565b93508360208202850161067185610821565b8060005b858110156106ad578484038952815161068e8582610636565b945061069983610847565b925060208a01995050600181019050610675565b50829750879550505050505092915050565b6106c881610887565b82525050565b60006106d98261083c565b6106e38185610865565b93506106f38185602086016108ac565b6106fc816109a0565b840191505092915050565b6000610714601f83610876565b915061071f826109b1565b602082019050919050565b6000606083016000830151610742600086018261077a565b506020830151848203602086015261075a82826106ce565b915050604083015161076f60408601826106bf565b508091505092915050565b61078381610893565b82525050565b600060208201905081810360008301526107a3818461064a565b905092915050565b600060208201905081810360008301526107c481610707565b9050919050565b60006107d56107e6565b90506107e18282610911565b919050565b6000604051905090565b600067ffffffffffffffff82111561080b5761080a610971565b5b610814826109a0565b9050602081019050919050565b6000819050602082019050919050565b600081519050919050565b600081519050919050565b6000602082019050919050565b600082825260208201905092915050565b600082825260208201905092915050565b600082825260208201905092915050565b60008115159050919050565b6000819050919050565b82818337600083830152505050565b60005b838110156108ca5780820151818401526020810190506108af565b838111156108d9576000848401525b50505050565b600060028204905060018216806108f757607f821691505b6020821081141561090b5761090a610942565b5b50919050565b61091a826109a0565b810181811067ffffffffffffffff8211171561093957610938610971565b5b80604052505050565b7f4e487b7100000000000000000000000000000000000000000000000000000000600052602260045260246000fd5b7f4e487b7100000000000000000000000000000000000000000000000000000000600052604160045260246000fd5b6000601f19601f8301169050919050565b7f5468652069642070726f7669646564206973206f7574206f662072616e676500600082015250565b6109e381610887565b81146109ee57600080fd5b50565b6109fa81610893565b8114610a0557600080fd5b5056fea264697066735822122066b6ec1c32eba288ac0d4332ee8bbf0544aaa28e36216191480a792e45a1eb3764736f6c63430008010033",
  "immutableReferences": {},
  "source": "// SPDX-License-Identifier: UNLICENSE-2.0\r\n\r\npragma solidity >=0.4.22 <0.9.0;\r\n\r\ncontract Todo {\r\n    struct todoItem{\r\n        uint id;\r\n        string todo;\r\n        bool done;\r\n    }\r\n    mapping(address=>todoItem[]) todos;\r\n\r\n    function addTodo(string memory todo) public  {\r\n        uint count = todos[msg.sender].length; \r\n        todos[msg.sender].push(todoItem({id: count, todo: todo, done: false}));\r\n        \r\n    }\r\n\r\n    function getTodos() public view returns(todoItem[] memory){\r\n        return todos[msg.sender];\r\n    }\r\n\r\n    function updateTodos(uint id, string memory todo, bool done) public {\r\n        require(id < todos[msg.sender].length && id >= 0, 'The id provided is out of range');\r\n        \r\n        todoItem storage item = todos[msg.sender][id];\r\n        // todos[msg.sender][id] = todoItem({id: id, todo: todo, done: done});\r\n        item.done = done;\r\n        item.todo = todo;\r\n    }\r\n}",
  "sourcePath": "C:\\Users\\Abba Bawa\\Documents\\web3\\solidity-todo-app\\contracts\\Todo.sol",
  "compiler": {
    "name": "solc",
    "version": "0.8.1+commit.df193b15.Emscripten.clang"
  },
  "schemaVersion": "3.4.10",
  "updatedAt": "2022-10-26T02:22:47.259Z",
  "networkType": "ethereum",
  "devdoc": {
    "kind": "dev",
    "methods": {},
    "version": 1
  },
  "userdoc": {
    "kind": "user",
    "methods": {},
    "version": 1
  }
}